:100000000C9488000C94A5000C94A5000C94A500F9
:100010000C94A5000C94A5000C94A5000C94A500CC
:100020000C94A5000C94A5000C94A5000C94A500BC
:100030000C94A5000C94D40E0C94A5000C94A5006F
:100040000C94A5000C94A5000C94A5000C94A5009C
:100050000C94A5000C94A5000C94A5000C94A5008C
:100060000C94A5000C94A500EE16F616F616F616DE
:10007000F616F616F616F616F616F616F616F61620
:10008000F616F616F616F616F616F616F616F61610
:10009000F616F616F616F616F616F616F616F61600
:1000A000F616A416B815EE15F616C416F616F616BC
:1000B000F616F616F616F616F616F616F616F616E0
:1000C000F616F616DD16F6163916F616F6166C1630
:1000D000F616F616F616F616F616F616F616F616C0
:1000E000F6168716B815C715F616C416F616F616C0
:1000F000F616F616F616F616F616F616F616F616A0
:10010000F616F616DD16F6162116F616F61654161F
:1001100011241FBECFEFD8E0DEBFCDBF12E0A0E0BC
:10012000B1E0E8E9F7E302C005900D92A83EB107FF
:10013000D9F723E0A8EEB2E001C01D92AA32B207BF
:10014000E1F70E94080F0C94CA1B0C940000CF9397
:10015000DF93CDB7DEB789EB90E029EB30E0F90112
:1001600020812C7FFC01208388EB90E028E3FC01B8
:1001700020830000DF91CF910895CF93DF9300D0CB
:10018000CDB7DEB78A8319828A818093E8028CEB2F
:1001900090E02CEB30E0F9012081246AFC012083FF
:1001A00000008CEB90E0FC0180818823D4F789EB80
:1001B00090E0FC018081882F90E0887F992788302B
:1001C000910519F0409721F006C08FEF898306C092
:1001D0008FEF898303C08EEF8983000089810F90A0
:1001E0000F90DF91CF910895CF93DF9300D0CDB7DB
:1001F000DEB78A8319828BEB90E02A81222F30E0D0
:10020000220F331F322F2091E802232BFC01208381
:100210008CEB90E02CEB30E0F90120812F7DFC018C
:1002200020838CEB90E02CEB30E0F90120812068FA
:10023000FC01208300008CEB90E0FC01808188238E
:10024000D4F78091E8028823E9F489EB90E0FC017F
:100250008081882F90E0887F99278032910541F036
:100260008833910541F0489749F48FEF89832BC07B
:100270008EEF898328C08EEF898325C08EEF898316
:10028000000021C08091E8028130E9F489EB90E020
:10029000FC018081882F90E0887F99278034910528
:1002A00031F08834910531F0C89739F009C08FEFEB
:1002B000898309C08EEF898306C08EEF898303C0CE
:1002C0008EEF8983000089810F900F90DF91CF918D
:1002D0000895CF93DF9300D0CDB7DEB78A8319821C
:1002E0008BEB90E02A81FC0120838CEB90E02CEBDF
:1002F00030E0F90120812068FC01208300008CEBB4
:1003000090E0FC0180818823D4F789EB90E0FC0128
:100310008081882F90E0887F99278033910541F074
:100320008833910541F0889749F48FEF898309C09C
:100330008EEF898306C08EEF898303C08EEF898399
:10034000000089810F900F90DF91CF910895CF9396
:10035000DF9300D0CDB7DEB782E389838CEF8A8349
:1003600009C08CEB90E0FC01808188231CF48DEFA8
:100370008A8306C089819FEF980F9983882389F724
:100380008A810F900F90DF91CF910895CF93DF93E3
:1003900000D0CDB7DEB78A838A81882351F48CEBF5
:1003A00090E02CEB30E0F90120812064FC012083F7
:1003B00009C08CEB90E02CEB30E0F90120812F7B21
:1003C000FC0120838CEB90E02CEB30E0F9012081E4
:1003D0002068FC0120830E94A70189EB90E0FC01CA
:1003E0008081882F90E0887F99278035910531F0B2
:1003F0008835910549F0C89769F00FC08BEB90E004
:10040000FC01808189830CC08BEB90E0FC01808132
:10041000898306C08EEF898303C08EEF8983000035
:1004200089810F900F90DF91CF910895CF93DF9343
:10043000CDB7DEB78CEB90E02CEB30E0F9012081FA
:100440002069FC01208300008CEB90E0FC0180819E
:10045000882F90E080719927892BB1F30000DF91FC
:10046000CF910895CF93DF93CDB7DEB78AE290E0C6
:100470002AE230E0F90120812460FC0120838AE235
:1004800090E02AE230E0F90120812260FC01208323
:100490008AE290E02AE230E0F90120812160FC014B
:1004A00020838AE290E02AE230E0F9012081206195
:1004B000FC0120838AE290E02AE230E0F901208109
:1004C0002062FC0120838AE290E02AE230E0F90118
:1004D00020812064FC0120838AE290E02AE230E05F
:1004E000F90120812068FC0120830000DF91CF9179
:1004F0000895CF93DF9300D0CDB7DEB78A838A818A
:10050000817089838BE290E02BE230E0F901208159
:10051000422F4F7E2981222F30E022953295307F65
:100520003227207F3227242BFC0120838A81869565
:10053000817089838BE290E02BE230E0F901208129
:10054000422F4F7D2981222F30E0220F331F229529
:100550003295307F3227207F3227242BFC012083E5
:100560008A8186958695817089838BE290E02BE263
:1005700030E0F9012081422F4F7B2981222F30E08A
:100580000024369527950794369527950794322FA2
:10059000202D242BFC0120838A81869586958695C3
:1005A000817089838BE290E02BE230E0F9012081B9
:1005B000422F4F772981222F30E03695322F222784
:1005C00037952795242BFC01208300000F900F9076
:1005D000DF91CF910895CF93DF9300D0CDB7DEB7F1
:1005E00089836A838A81882351F48BE290E02BE22D
:1005F00030E0F90120812B7FFC01208309C08BE2D0
:1006000090E02BE230E0F90120812460FC0120839E
:100610008BE290E02BE230E0F90120812D7FFC019C
:1006200020838BE290E02BE230E0F90120812E7FE5
:10063000FC0120838BE290E02BE230E0F901208185
:100640002160FC01208389810E9479028BE290E085
:100650002BE230E0F90120812E7FFC012083000095
:100660000F900F90DF91CF910895CF93DF93CDB787
:10067000DEB7A3970FB6F894DEBF0FBECDBF8AA337
:100680006BA38AA182958F7089836BA189810E9457
:10069000EB028AA18F7089836BA189810E94EB0292
:1006A00080E090E0A0E2B2E48A839B83AC83BD83C8
:1006B0002BEA3AEA4AEA50E46A817B818C819D8187
:1006C0000E945D1BDC01CB018E839F83A887B987C5
:1006D00020E030E040E850E46A817B818C819D819C
:1006E0000E945D1BDC01CB018A879B87AC87BD879D
:1006F00020E030E040E85FE36E817F818885998566
:100700000E94001A88231CF481E08E87B2C020E08A
:100710003FEF4FE757E46A857B858C859D850E9476
:10072000581B18160CF07BC020E030E04AE754E478
:100730006A817B818C819D810E94051ADC01CB013D
:100740008F87988BA98BBA8B20E030E04AE755E47D
:100750006F85788989899A890E945D1BDC01CB01AC
:100760008B8B9C8BAD8BBE8B20E030E040E85FE351
:100770006B897C898D899E890E94001A88232CF4BC
:1007800081E090E0988F8F8B3FC020E03FEF4FE7F4
:1007900057E46B897C898D899E890E94581B1816A5
:1007A0004CF520E030E040E251E46F85788989899A
:1007B0009A890E945D1BDC01CB01BC01CD010E9426
:1007C000771ADC01CB01988F8F8B0FC080E991E005
:1007D0009A8F898F898D9A8D0197F1F79A8F898FDA
:1007E0008F89988D0197988F8F8B8F89988D892B02
:1007F00069F73FC06B897C898D899E890E94771A31
:10080000DC01CB01988F8F8B8F89988D9C8F8B8F7C
:100810008B8D9C8D0197F1F79C8F8B8F2AC020E0E8
:1008200030E04FE753E46E817F81888599850E948F
:10083000581B1816ACF46A857B858C859D850E94B3
:10084000771ADC01CB019E8F8D8F8D8D9E8D98A3A5
:100850008F8F8F8D98A10197F1F798A38F8F0FC07D
:100860006E817F81888599850E94771ADC01CB0192
:100870008E878E8589A389A18A95F1F789A30000C7
:10088000A3960FB6F894DEBF0FBECDBFDF91CF9118
:100890000895CF93DF93CDB7DEB76E970FB6F89478
:1008A000DEBF0FBECDBF8E8F80E090E0A0E2B1E44E
:1008B0008A839B83AC83BD8320E030E04AE755E424
:1008C0006A817B818C819D810E945D1BDC01CB0153
:1008D0008C8B9D8BAE8BBF8B20E030E040E85FE3DC
:1008E0006C897D898E899F890E94001A88232CF447
:1008F00081E090E0998F888F3FC020E03FEF4FE785
:1009000057E46C897D898E899F890E94581B18162F
:100910004CF520E030E040E251E46A817B818C813B
:100920009D810E945D1BDC01CB01BC01CD010E94B9
:10093000771ADC01CB01998F888F0FC080E991E095
:100940009B8F8A8F8A8D9B8D0197F1F79B8F8A8F62
:10095000888D998D0197998F888F888D998D892B96
:1009600069F714C06C897D898E899F890E94771AE6
:10097000DC01CB01998F888F888D998D9D8F8C8F0D
:100980008C8D9D8D0197F1F79D8F8C8F8E8D82952B
:100990008F70898360E089810E94EB0280E090E0A3
:1009A000A0E2B1E48E839F83A887B98720E030E07E
:1009B0004AE755E46E817F81888599850E945D1B99
:1009C000DC01CB018A879B87AC87BD8720E030E0C4
:1009D00040E85FE36A857B858C859D850E94001ACF
:1009E00088232CF481E090E09F878E873FC020E031
:1009F0003FEF4FE757E46A857B858C859D850E9494
:100A0000581B18164CF520E030E040E251E46E81AE
:100A10007F81888599850E945D1BDC01CB01BC012B
:100A2000CD010E94771ADC01CB019F878E870FC012
:100A300080E991E0998B888B888999890197F1F7F2
:100A4000998B888B8E859F8501979F878E878E8552
:100A50009F85892B69F714C06A857B858C859D8568
:100A60000E94771ADC01CB019F878E878E859F8538
:100A70009B8B8A8B8A899B890197F1F79B8B8A8B49
:100A80008E8D8F70898360E089810E94EB02000067
:100A90006E960FB6F894DEBF0FBECDBFDF91CF913B
:100AA0000895CF93DF9300D0CDB7DEB78A838A81D4
:100AB00082958F70898360E089810E94EB028A8130
:100AC0008F70898360E089810E94EB0200000F90A3
:100AD0000F90DF91CF910895CF93DF93CDB7DEB71D
:100AE000A1970FB6F894DEBF0FBECDBF8BE290E0AA
:100AF0002BE230E0F90120812B7FFC0120838BE287
:100B000090E02BE230E0F90120812260FC0120839B
:100B100085E290E025E230E0F9012081277FFC01A9
:100B2000208381E089838BE290E02BE230E0F901C1
:100B300020812E7FFC0120838BE290E02BE230E0CD
:100B4000F90120812160FC01208383E290E0FC0117
:100B50008081887089838BE290E02BE230E0F9019C
:100B600020812E7FFC01208380E090E0A0E0BFE3A5
:100B70008A839B83AC83BD832BEA3AEA4AEA50E43A
:100B80006A817B818C819D810E945D1BDC01CB0190
:100B90008E839F83A887B98720E030E040E850E447
:100BA0006A817B818C819D810E945D1BDC01CB0170
:100BB0008A879B87AC87BD8720E030E040E85FE311
:100BC0006E817F81888599850E94001A88231CF494
:100BD00081E08E87B2C020E03FEF4FE757E46A859F
:100BE0007B858C859D850E94581B18160CF07BC058
:100BF00020E030E04AE754E46A817B818C819D816A
:100C00000E94051ADC01CB018F87988BA98BBA8BC8
:100C100020E030E04AE755E46F85788989899A8930
:100C20000E945D1BDC01CB018B8B9C8BAD8BBE8B43
:100C300020E030E040E85FE36B897C898D899E8904
:100C40000E94001A88232CF481E090E0988F8F8B0B
:100C50003FC020E03FEF4FE757E46B897C898D89E7
:100C60009E890E94581B18164CF520E030E040E2A7
:100C700051E46F85788989899A890E945D1BDC011E
:100C8000CB01BC01CD010E94771ADC01CB01988F0A
:100C90008F8B0FC080E991E09A8F898F898D9A8D13
:100CA0000197F1F79A8F898F8F89988D0197988F87
:100CB0008F8B8F89988D892B69F73FC06B897C89D1
:100CC0008D899E890E94771ADC01CB01988F8F8BCA
:100CD0008F89988D9C8F8B8F8B8D9C8D0197F1F7D1
:100CE0009C8F8B8F2AC020E030E04FE753E46E8169
:100CF0007F81888599850E94581B1816ACF46A85F7
:100D00007B858C859D850E94771ADC01CB019E8FA7
:100D10008D8F8D8D9E8D98A38F8F8F8D98A101972C
:100D2000F1F798A38F8F0FC06E817F818885998599
:100D30000E94771ADC01CB018E878E8589A389A159
:100D40008A95F1F789A38981882309F0ECCE85E2A1
:100D500090E025E230E0F90120812860FC01208349
:100D60008BE290E02BE230E0F90120812D7FFC0145
:100D700020830000A1960FB6F894DEBF0FBECDBF52
:100D8000DF91CF9108950F931F93CF93DF93CDB74A
:100D9000DEB7C459D1090FB6F894DEBF0FBECDBF80
:100DA00080E090E0A8E4B2E489839A83AB83BC83BB
:100DB0008E0105571F4F20E030E04AE755E4698176
:100DC0007A818B819C810E945D1BDC01CB01F80143
:100DD00080839183A283B383CE0185579F4F20E008
:100DE00030E040E85FE3FC016081718182819381A2
:100DF0000E94001A88234CF4CE0181579F4F21E0B6
:100E000030E0FC013183208369C0CE0185579F4FBC
:100E100020E03FEF4FE757E4FC0160817181828160
:100E200093810E94581B18160CF046C020E030E059
:100E300040E251E469817A818B819C810E945D1B33
:100E4000DC01CB018E0101571F4FBC01CD010E9477
:100E5000771ADC01CB01F8019183808324C0CE0195
:100E60008F569F4F20E931E0FC0131832083CE0172
:100E70008F569F4FFC01808191810197F1F79E0170
:100E80002F563F4FF90191838083CE0181579F4FA9
:100E90009E0121573F4FF9012081318121503109B5
:100EA000FC0131832083CE0181579F4FFC0180815B
:100EB0009181892BA1F62CC08E0101571F4FCE01C5
:100EC00085579F4FFC0160817181828193810E94CF
:100ED000771ADC01CB01F80191838083CE018D5616
:100EE0009F4F9E0121573F4FF90120813181FC0125
:100EF00031832083CE018D569F4FFC0180819181EB
:100F00000197F1F79E012D563F4FF90191838083A0
:100F10000E94320283E00E94510580E090E0A0EA46
:100F2000B0E48D839E83AF83B8878E010F571F4F28
:100F300020E030E04AE755E46D817E818F8198851D
:100F40000E945D1BDC01CB01F80180839183A283A9
:100F5000B383CE018F579F4F20E030E040E85FE33E
:100F6000FC0160817181828193810E94001A882333
:100F70004CF4CE018B579F4F21E030E0FC013183D0
:100F8000208369C0CE018F579F4F20E03FEF4FE78E
:100F900057E4FC0160817181828193810E94581B1A
:100FA00018160CF046C020E030E040E251E46D81BC
:100FB0007E818F8198850E945D1BDC01CB018E01B3
:100FC0000B571F4FBC01CD010E94771ADC01CB01EA
:100FD000F8019183808324C0CE0189579F4F20E977
:100FE00031E0FC0131832083CE0189579F4FFC0102
:100FF000808191810197F1F79E0129573F4FF901B7
:1010000091838083CE018B579F4F9E012B573F4F7B
:10101000F9012081318121503109FC013183208384
:10102000CE018B579F4FFC0180819181892BA1F6C6
:101030002CC08E010B571F4FCE018F579F4FFC01C5
:1010400060817181828193810E94771ADC01CB01DA
:10105000F80191838083CE0187579F4F9E012B57C4
:101060003F4FF90120813181FC0131832083CE0182
:1010700087579F4FFC01808191810197F1F79E0175
:1010800027573F4FF9019183808383E00E945105E8
:1010900080E090E0A0E2B3E489879A87AB87BC87C1
:1010A0008E010B591F4F2BEA3AEA4AEA50E4698550
:1010B0007A858B859C850E945D1BDC01CB01F80144
:1010C00080839183A283B3838E0107591F4F20E051
:1010D00030E040E850E469857A858B859C850E94E4
:1010E0005D1BDC01CB01F80180839183A283B38374
:1010F000CE018B599F4F20E030E040E85FE3FC01D8
:1011000060817181828193810E94001A88233CF45E
:10111000CE0183599F4F21E0FC0120832CC1CE01D9
:1011200087599F4F20E03FEF4FE757E4FC01608174
:101130007181828193810E94581B18160CF0CDC0DA
:1011400020E030E04AE754E469857A858B859C8508
:101150000E94051ADC01CB019E0122593F4FF90183
:1011600080839183A283B3838E010E581F4FCE01DB
:1011700082599F4F20E030E04AE755E4FC0160814E
:101180007181828193810E945D1BDC01CB01F8019A
:1011900080839183A283B383CE018E589F4F20E03A
:1011A00030E040E85FE3FC016081718182819381DE
:1011B0000E94001A88234CF4CE018A589F4F21E0E8
:1011C00030E0FC01318320836DC0CE018E589F4FEB
:1011D00020E03FEF4FE757E4FC016081718182819D
:1011E00093810E94581B18160CF04AC0CE018259F8
:1011F0009F4F20E030E040E251E4FC0160817181CA
:10120000828193810E945D1BDC01CB018E010A5813
:101210001F4FBC01CD010E94771ADC01CB01F80100
:101220009183808324C0CE0188589F4F20E931E00C
:10123000FC0131832083CE0188589F4FFC018081BF
:1012400091810197F1F79E0128583F4FF901918351
:101250008083CE018A589F4F9E012A583F4FF90143
:101260002081318121503109FC0131832083CE015D
:101270008A589F4FFC0180819181892BA1F67BC008
:101280008E010A581F4FCE018E589F4FFC0160817E
:101290007181828193810E94771ADC01CB01F80170
:1012A00091838083CE0186589F4F9E012A583F4FDD
:1012B000F90120813181FC0131832083CE018658E0
:1012C0009F4FFC01808191810197F1F79E01265883
:1012D0003F4FF901918380834EC0CE018B599F4FC0
:1012E00020E030E04FE753E4FC01608171818281AE
:1012F00093810E94581B18166CF58E0104581F4FDD
:10130000CE0187599F4FFC01608171818281938159
:101310000E94771ADC01CB01F80191838083CE0112
:1013200082589F4F9E0124583F4FF90120813181FF
:10133000FC0131832083CE0182589F4FFC018081C4
:1013400091810197F1F79E0122583F4FF901918356
:10135000808328C08E0103591F4FCE018B599F4FA8
:10136000FC0160817181828193810E94771ADC0186
:10137000CB01F8018083CE0180589F4F9E012359F5
:101380003F4FF9012081FC012083CE0180589F4FFF
:10139000FC018081282F2A95F1F7CE0180589F4FBC
:1013A000FC01208383E00E94510580E090E0A0E2F0
:1013B000B3E48D879E87AF87B88B8E01075B1F4F85
:1013C0002BEA3AEA4AEA50E46D857E858F85988952
:1013D0000E945D1BDC01CB01F80180839183A28315
:1013E000B3838E01035B1F4F20E030E040E850E400
:1013F0006D857E858F8598890E945D1BDC01CB0100
:10140000F80180839183A283B383CE01875B9F4FD2
:1014100020E030E040E85FE3FC016081718182817F
:1014200093810E94001A88233CF4CE018F5A9F4F6B
:1014300021E0FC0120832CC1CE01835B9F4F20E083
:101440003FEF4FE757E4FC01608171818281938116
:101450000E94581B18160CF0CDC020E030E04AE77F
:1014600054E46D857E858F8598890E94051ADC017C
:10147000CB019E012E5A3F4FF90180839183A283B5
:10148000B3838E010A5A1F4FCE018E5A9F4F20E020
:1014900030E04AE755E4FC016081718182819381EB
:1014A0000E945D1BDC01CB01F80180839183A28344
:1014B000B383CE018A5A9F4F20E030E040E85FE3DB
:1014C000FC0160817181828193810E94001A8823CE
:1014D0004CF4CE01865A9F4F21E030E0FC0131836D
:1014E00020836DC0CE018A5A9F4F20E03FEF4FE727
:1014F00057E4FC0160817181828193810E94581BB5
:1015000018160CF04AC0CE018E5A9F4F20E030E0F2
:1015100040E251E4FC0160817181828193810E94EB
:101520005D1BDC01CB018E01065A1F4FBC01CD01B2
:101530000E94771ADC01CB01F8019183808324C0DB
:10154000CE01845A9F4F20E931E0FC013183208392
:10155000CE01845A9F4FFC01808191810197F1F760
:101560009E01245A3F4FF90191838083CE01865A10
:101570009F4F9E01265A3F4FF90120813181215012
:101580003109FC0131832083CE01865A9F4FFC0133
:1015900080819181892BA1F67BC08E01065A1F4F55
:1015A000CE018A5A9F4FFC016081718182819381B3
:1015B0000E94771ADC01CB01F80191838083CE0170
:1015C000825A9F4F9E01265A3F4FF9012081318157
:1015D000FC0131832083CE01825A9F4FFC01808120
:1015E00091810197F1F79E01225A3F4FF9019183B2
:1015F00080834EC0CE01875B9F4F20E030E04FE7F5
:1016000053E4FC0160817181828193810E94581BA7
:1016100018166CF58E01005A1F4FCE01835B9F4F49
:10162000FC0160817181828193810E94771ADC01C3
:10163000CB01F80191838083CE018E599F4F9E018B
:10164000205A3F4FF90120813181FC0131832083F1
:10165000CE018E599F4FFC01808191810197F1F756
:101660009E012E593F4FF9019183808328C08E013E
:101670000F5A1F4FCE01875B9F4FFC016081718124
:10168000828193810E94771ADC01CB01F80180836B
:10169000CE018C599F4F9E012F5A3F4FF901208157
:1016A000FC012083CE018C599F4FFC018081282FA3
:1016B0002A95F1F7CE018C599F4FFC01208382E0DF
:1016C0000E94510580E090E0A0E2B1E4898B9A8B02
:1016D000AB8BBC8B8E01015C1F4F20E030E04AE7F2
:1016E00055E469897A898B899C890E945D1BDC019C
:1016F000CB01F80180839183A283B383CE01CF967F
:1017000020E030E040E85FE3FC016081718182818C
:1017100093810E94001A88234CF4CE018D5B9F4F69
:1017200021E030E0FC013183208367C0CE01CF96F9
:1017300020E03FEF4FE757E4FC0160817181828137
:1017400093810E94581B18160CF046C020E030E030
:1017500040E251E469897A898B899C890E945D1BEA
:10176000DC01CB018E010D5B1F4FBC01CD010E943E
:10177000771ADC01CB01F8019183808324C0CE016C
:101780008B5B9F4F20E931E0FC0131832083CE0148
:101790008B5B9F4FFC01808191810197F1F79E0146
:1017A0002B5B3F4FF90191838083CE018D5B9F4F6F
:1017B0009E012D5B3F4FF90120813181215031097C
:1017C000FC0131832083CE018D5B9F4FFC01808122
:1017D0009181892BA1F62BC08E010D5B1F4FCE018D
:1017E000CF96FC0160817181828193810E94771A7A
:1017F000DC01CB01F80191838083CE01895B9F4F8F
:101800009E012D5B3F4FF90120813181FC01318325
:101810002083CE01895B9F4FFC01808191810197DC
:10182000F1F79E01295B3F4FF9019183808388E2A4
:101830000E94510580E090E0A0E2B1E48D8B9E8B88
:10184000AF8BB88F20E030E04AE755E46D897E89A0
:101850008F89988D0E945D1BDC01CB018DAB9EAB07
:10186000AFABB8AF20E030E040E85FE36DA97EA900
:101870008FA998AD0E94001A88232CF481E090E093
:101880009AAF89AF3FC020E03FEF4FE757E46DA923
:101890007EA98FA998AD0E94581B18164CF520E020
:1018A00030E040E251E46D897E898F89988D0E94F5
:1018B0005D1BDC01CB01BC01CD010E94771ADC016C
:1018C000CB019AAF89AF0FC080E991E09CAF8BAF9D
:1018D0008BAD9CAD0197F1F79CAF8BAF89AD9AAD05
:1018E00001979AAF89AF89AD9AAD892B69F714C07A
:1018F0006DA97EA98FA998AD0E94771ADC01CB0152
:101900009AAF89AF89AD9AAD9EAF8DAF8DAD9EADCB
:101910000197F1F79EAF8DAF8CE00E94510580E0FA
:1019200090E0A0E2B1E4898F9A8FAB8FBC8F20E06A
:1019300030E04AE755E4698D7A8D8B8D9C8D0E944D
:101940005D1BDC01CB018BA79CA7ADA7BEA720E048
:1019500030E040E85FE36BA57CA58DA59EA50E94C5
:10196000001A88232CF481E090E098AB8FA73FC049
:1019700020E03FEF4FE757E46BA57CA58DA59EA522
:101980000E94581B18164CF520E030E040E251E46C
:10199000698D7A8D8B8D9C8D0E945D1BDC01CB0146
:1019A000BC01CD010E94771ADC01CB0198AB8FA757
:1019B0000FC080E991E09AAB89AB89A99AA90197F8
:1019C000F1F79AAB89AB8FA598A9019798AB8FA730
:1019D0008FA598A9892B69F714C06BA57CA58DA547
:1019E0009EA50E94771ADC01CB0198AB8FA78FA52B
:1019F00098A99CAB8BAB8BA99CA90197F1F79CABE9
:101A00008BAB80E80E94510580E090E0A0E2B1E459
:101A10008D8F9E8FAF8FB8A320E030E04AE755E46A
:101A20006D8D7E8D8F8D98A10E945D1BDC01CB0199
:101A300089A39AA3ABA3BCA320E030E040E85FE316
:101A400069A17AA18BA19CA10E94001A88232CF481
:101A500081E090E09EA38DA33FC020E03FEF4FE7E1
:101A600057E469A17AA18BA19CA10E94581B18166A
:101A70004CF520E030E040E251E46D8D7E8D8F8D9D
:101A800098A10E945D1BDC01CB01BC01CD010E942D
:101A9000771ADC01CB019EA38DA30FC080E991E0F2
:101AA00098A78FA38FA198A50197F1F798A78FA367
:101AB0008DA19EA101979EA38DA38DA19EA1892B8F
:101AC00069F714C069A17AA18BA19CA10E94771A21
:101AD000DC01CB019EA38DA38DA19EA19AA789A70E
:101AE00089A59AA50197F1F79AA789A70000CC5676
:101AF000DF4F0FB6F894DEBF0FBECDBFDF91CF91A1
:101B00001F910F910895CF93DF9300D0CDB7DEB72B
:101B100089836A83898188323CF58A81082E000C8A
:101B2000990B8130910581F0823091051CF4892B4D
:101B300039F016C08230910559F0039769F010C052
:101B40008981806889830CC08981806C898308C001
:101B500089818469898304C08981846D89830000B7
:101B6000898160E00E94350300000F900F90DF91A3
:101B7000CF910895CF93DF9300D01F92CDB7DEB7FA
:101B80009B838A8319820FC08981882F90E02A81E4
:101B90003B81820F931FFC01808161E00E9435032D
:101BA00089818F5F89838981882F90E02A813B8199
:101BB000820F931FFC018081882331F700000F9072
:101BC0000F900F90DF91CF910895CF93DF9300D0C6
:101BD000CDB7DEB79A83898385E290E025E230E0D5
:101BE000F9012081422F21E030E0098002C0220F5C
:101BF000331F0A94E2F720952423FC012083000080
:101C00000F900F90DF91CF910895CF93DF9300D085
:101C1000CDB7DEB79A83898385E290E025E230E094
:101C2000F9012081422F21E030E0098002C0220F1B
:101C3000331F0A94E2F7242BFC01208300000F904D
:101C40000F90DF91CF910895CF93DF9300D0CDB760
:101C5000DEB79A83898385E290E025E230E0F901DE
:101C60002081422F21E030E0098002C0220F331F83
:101C70000A94E2F72427FC01208300000F900F90C4
:101C8000DF91CF910895CF93DF9300D000D0CDB7EF
:101C9000DEB79C838B8383E290E0FC018081282F58
:101CA00030E081E090E00B8002C0880F991F0A9419
:101CB000E2F7822393230B8002C0959587950A94BF
:101CC000E2F79A83898389819A810F900F900F9010
:101CD0000F90DF91CF910895CF93DF9300D000D084
:101CE000CDB7DEB79C838B8383E290E0FC018081DB
:101CF000282F30E081E090E00B8002C0880F991F10
:101D00000A94E2F7822393230B8002C0959587956E
:101D10000A94E2F79A8389832091E9023091EA02DA
:101D200089819A812817390769F089819A8190936E
:101D3000EA028093E90289819A81019719F481E08E
:101D400090E002C080E090E00F900F900F900F9015
:101D5000DF91CF910895CF93DF93CDB7DEB78CE7B6
:101D600090E02CE730E0F9012081207FFC01208306
:101D70008AE790E02AE730E0F90120812064FC0145
:101D8000208300008AE790E0FC018081882F90E0AA
:101D900080749927892BB1F788E790E0FC01808156
:101DA0009181DF91CF9108951F920F9200905F0073
:101DB0000F9211242F933F934F935F936F937F93D1
:101DC0008F939F93AF93BF93EF93FF93CF93DF9343
:101DD000CDB7DEB784E890E022E13AE7FC01318339
:101DE00020830E94B50F0000DF91CF91FF91EF910A
:101DF000BF91AF919F918F917F916F915F914F9123
:101E00003F912F910F9000925F000F901F901895B7
:101E1000CF93DF93CDB7DEB70E940C1981E890E035
:101E200024E0FC01208384E890E022E13AE7FC0111
:101E3000318320838FE690E021E0FC0120837894B9
:101E400040E050E061E08DE191E10E94380F42E016
:101E500050E062E089E291E10E94380F40E050E0FA
:101E600065E085E391E10E94380F0E943610FDCFB6
:101E7000CF93DF93CDB7DEB727970FB6F894DEBFC9
:101E80000FBECDBF9C838B836D835F834E8384E0C5
:101E900090E09A8389838D81882319F08D818B301E
:101EA00028F082E090E09A83898354C080912703D0
:101EB0008A3028F083E090E09A8389834BC0809138
:101EC0002703282F30E0C901880F991F820F931F25
:101ED000880F991F85519D4F2B813C81FC013183D7
:101EE000208380912703282F30E0C901880F991F94
:101EF000820F931F880F991F83519D4F2D81FC01E5
:101F0000208380912703282F30E0C901880F991F73
:101F1000820F931F880F991F81519D4F2E813F8102
:101F2000FC013183208380912703282F30E0C901F1
:101F3000880F991F820F931F880F991F82519D4F01
:101F400021E0FC012083809127038F5F809327038A
:101F50001A82198289819A8127960FB6F894DEBF7A
:101F60000FBECDBFDF91CF910895CF93DF931F9226
:101F7000CDB7DEB719826FC08981282F30E0C90143
:101F8000880F991F820F931F880F991F81519D4FB2
:101F9000FC0180819181029709F45AC08981282F20
:101FA00030E0C901880F991F820F931F880F991F76
:101FB00083519D4FFC0140818981282F30E0C90168
:101FC000880F991F820F931F880F991F82519D4F71
:101FD000FC018081841708F18981282F30E0C90134
:101FE000880F991F820F931F880F991F82519D4F51
:101FF00021E0FC0120838981282F30E0C901880F6E
:10200000991F820F931F880F991F81519D4F21E0C7
:1020100030E0FC01318320831BC08981282F30E010
:10202000C901880F991F820F931F880F991F825132
:102030009D4FFC01808141E0480FC901880F991F25
:10204000820F931F880F991F82519D4FFC0140837F
:1020500089818F5F8983809127039981981708F47C
:102060008BCF00000F90DF91CF910895CF93DF9336
:102070001F92CDB7DEB7198234C08981282F30E096
:10208000C901880F991F820F931F880F991F8151D3
:102090009D4FFC0180819181019701F58981282F55
:1020A00030E0C901880F991F820F931F880F991F75
:1020B00085519D4FFC0180819181FC0109958981A9
:1020C000282F30E0C901880F991F820F931F880FB6
:1020D000991F81519D4FFC011182108289818F5F70
:1020E0008983809127039981981738F200000F9017
:1020F000DF91CF910895CF93DF931F92CDB7DEB7D5
:1021000089838981282F30E0C901880F991F820FA8
:10211000931F880F991F81519D4FFC0180819181F0
:102120000F90DF91CF910895CF93DF931F92CDB79A
:10213000DEB789838981282F30E0C901880F991F74
:10214000820F931F880F991F83519D4FFC0180813F
:102150000F90DF91CF910895CF93DF931F92CDB76A
:10216000DEB789838981282F30E0C901880F991F44
:10217000820F931F880F991F82519D4FFC01808110
:102180000F90DF91CF910895CF93DF9300D01F92EE
:10219000CDB7DEB789837B836A838981282F30E0BE
:1021A000C901880F991F820F931F880F991F8151B2
:1021B0009D4F2A813B81FC013183208300000F90D9
:1021C0000F900F90DF91CF910895CF93DF9300D0C0
:1021D000CDB7DEB789836A838981282F30E0C901B2
:1021E000880F991F820F931F880F991F83519D4F4E
:1021F0002A81FC01208300000F900F90DF91CF9186
:102200000895CF93DF9300D0CDB7DEB789836A837B
:102210008981282F30E0C901880F991F820F931FF1
:10222000880F991F82519D4F2A81FC012083000055
:102230000F900F90DF91CF910895CF93DF93CDB79B
:10224000DEB784E090E00E94240E0000DF91CF9181
:102250000895CF93DF93CDB7DEB782E090E00E9480
:10226000240E0000DF91CF910895CF93DF93CDB777
:10227000DEB783E090E00E94240E0000DF91CF9152
:102280000895CF93DF93CDB7DEB70E94A7008EEA03
:102290000E94F61885ED0E94F61880E80E94F61854
:1022A00088EA0E94F6188FE30E94F61883ED0E94D8
:1022B000F61880E00E94F61880E40E94F6188DE877
:1022C0000E94F61884E10E94F61880E20E94F61837
:1022D00080E00E94F61881EA0E94F61888EC0E94BD
:1022E000F6188AED0E94F61882E10E94F61881E83D
:1022F0000E94F6188FEC0E94F61889ED0E94F618DD
:1023000081EF0E94F6188BED0E94F61880E40E947F
:10231000F61884EA0E94F61886EA0E94F6188FEAF8
:102320000E94F6180E940C170000DF91CF910895CB
:10233000CF93DF9300D01F92CDB7DEB78B83198286
:1023400080912903882F90E00596803891051CF430
:102350008B818A3011F40E946D178B818A3071F164
:102360008B8180528B838B81282F30E08981482F8D
:1023700050E0C901880F991F880F991F820F931F82
:10238000840F951F80509F4FFC0180818A838A8132
:102390000E94E818809129038F5F80932903898127
:1023A0008F5F898389818530F1F680E00E94E8188B
:1023B000809129038F5F80932903000000000F9014
:1023C0000F900F90DF91CF910895CF93DF9300D0BE
:1023D000CDB7DEB79A8389830BC089819A819C012E
:1023E0002F5F3F4F3A832983FC0180810E9498111F
:1023F00089819A81FC018081882379F700000F9000
:102400000F90DF91CF910895CF93DF93CDB7DEB7D3
:10241000E7970FB6F894DEBF0FBECDBF8DAB7FAB95
:102420006EAB8DA9883008F01DAA1982D0C11B821D
:10243000C7C196E08B81292F281B822F682F8DA979
:102440000E94841796E08B81E92FE81B8E2F8D83E5
:102450001A822CC18981282F30E08A81882F90E050
:10246000820F931F9C018EA99FA9820F931FFC01CD
:10247000808180528E831C821BC08E81282F30E089
:102480008C81482F50E0C901880F991F880F991F30
:10249000820F931F840F951F80509F4FFC018081F6
:1024A0000E94E8188D818F5F8D838C818F5F8C8374
:1024B0008C81853018F48D818823FCF680E00E94A1
:1024C000E81880E090E0A0E2B1E48B879C87AD87BC
:1024D000BE872BEA3AEA4AEA50E46B857C858D8513
:1024E0009E850E945D1BDC01CB018F87988BA98B99
:1024F000BA8B20E030E040E850E46B857C858D8528
:102500009E850E945D1BDC01CB018B8B9C8BAD8B70
:10251000BE8B20E030E040E85FE36F8578898989F1
:102520009A890E94001A88231CF481E08F8BB2C024
:1025300020E03FEF4FE757E46B897C898D899E89C6
:102540000E94581B18160CF07BC020E030E04AE7D0
:1025500054E46B857C858D859E850E94051ADC017F
:10256000CB01888F998FAA8FBB8F20E030E04AE79C
:1025700055E4688D798D8A8D9B8D0E945D1BDC01F1
:10258000CB018C8F9D8FAE8FBF8F20E030E040E875
:102590005FE36C8D7D8D8E8D9F8D0E94001A882348
:1025A0002CF481E090E099A388A33FC020E03FEFA6
:1025B0004FE757E46C8D7D8D8E8D9F8D0E94581B4B
:1025C00018164CF520E030E040E251E4688D798D3A
:1025D0008A8D9B8D0E945D1BDC01CB01BC01CD016E
:1025E0000E94771ADC01CB0199A388A30FC080E970
:1025F00091E09BA38AA38AA19BA10197F1F79BA3DA
:102600008AA388A199A1019799A388A388A199A1D8
:10261000892B69F73FC06C8D7D8D8E8D9F8D0E94BB
:10262000771ADC01CB0199A388A388A199A19DA366
:102630008CA38CA19DA10197F1F79DA38CA32AC027
:1026400020E030E04FE753E46F85788989899A89E3
:102650000E94581B1816ACF46B897C898D899E8961
:102660000E94771ADC01CB019FA38EA38EA19FA1AC
:1026700099A788A788A599A50197F1F799A788A791
:102680000FC06F85788989899A890E94771ADC0141
:10269000CB018F8B8F898AA78AA58A95F1F78AA7A4
:1026A0008D818F5F8D838A818F5F8A838981282FB7
:1026B00030E08A81882F90E0820F931F9C018EA9C1
:1026C0009FA9820F931FFC018081882321F08D81B7
:1026D00088230CF0BFCE80E090E0A0EAB1E48F83C5
:1026E0009887A987BA8720E030E04AE755E46F81F0
:1026F000788589859A850E945D1BDC01CB018BA7BB
:102700009CA7ADA7BEA720E030E040E85FE36BA543
:102710007CA58DA59EA50E94001A88232CF481E03B
:1027200090E098AB8FA73FC020E03FEF4FE757E422
:102730006BA57CA58DA59EA50E94581B18164CF56F
:1027400020E030E040E251E46F81788589859A8508
:102750000E945D1BDC01CB01BC01CD010E94771AF8
:10276000DC01CB0198AB8FA70FC080E991E09AAB59
:1027700089AB89A99AA90197F1F79AAB89AB8FA583
:1027800098A9019798AB8FA78FA598A9892B69F76E
:1027900014C06BA57CA58DA59EA50E94771ADC01AF
:1027A000CB0198AB8FA78FA598A99CAB8BAB8BA9BE
:1027B0009CA90197F1F79CAB8BAB8B818F5F8B83CF
:1027C0008B81863008F435CE89818F5F898389813A
:1027D000882F90E02EA93FA9820F931FFC018081D2
:1027E000882309F024CE0000E7960FB6F894DEBFE8
:1027F0000FBECDBFDF91CF910895FF920F931F932E
:10280000CF93DF93CDB7DEB761970FB6F894DEBFF5
:102810000FBECDBF8C874D875E876F87788B298BE6
:1028200019828C85823061F527C08989882F90E0D4
:102830009C012150310981E090E002C0880F991F6E
:102840002A95E2F79C01990F440B550B8D859E85C7
:10285000AF85B88982239323A423B52321E0892B54
:102860008A2B8B2B09F420E029838981805D0E94CB
:10287000981189898150898B89898823B1F6A0C0F4
:102880008D859E85AF85B889892B8A2B8B2B89F402
:10289000198206C080E30E94981189818F5F898325
:1028A00099818989981708F08BC089818A3090F3C3
:1028B00087C0198251C08D859E85AF85B889892BC7
:1028C0008A2B8B2BA1F18981082F10E0FD848C8548
:1028D000282F30E040E050E08D859E85AF85B88997
:1028E000BC01CD010E946B19DA01C901982F8C85BA
:1028F000989F802D11242F2D281BCE010296800F2A
:10290000911FFC0120838C85282F30E040E050E0AF
:102910008D859E85AF85B889BC01CD010E946B195C
:10292000DA01C9018D879E87AF87B88B12C089896C
:102930008F3F09F442C089898B3008F03EC08981FD
:10294000882F90E09E012E5F3F4F820F931FFC0166
:10295000108289818F5F898399818989981708F40A
:10296000AACF2BC08981882F90E001979E012E5F0E
:102970003F4F820F931FFC0180818A3068F089816C
:10298000882F90E001979E012E5F3F4F820F931F8B
:10299000FC018081895C0CC08981882F90E00197BF
:1029A0009E012E5F3F4F820F931FFC018081805D4F
:1029B0000E9498118981815089838981882391F6A9
:1029C000000061960FB6F894DEBF0FBECDBFDF9159
:1029D000CF911F910F91FF900895CF93DF93CDB7C3
:1029E000DEB728970FB6F894DEBF0FBECDBF6D835C
:1029F0007E838F8398876D817E818F8198850E94E9
:102A0000771ADC01CB0189839A83AB83BC838981EC
:102A10009A81AB81BC812FEFAC01BD018AE00E949D
:102A2000FD138EE20E94981169817A818B819C81CD
:102A30000E94A61ADC01CB019C01AD016D817E8153
:102A40008F8198850E949319DC01CB018D839E8331
:102A5000AF83B88720E034E244E759E46D817E819A
:102A60008F8198850E945D1BDC01CB01BC01CD01EB
:102A70000E94771ADC01CB0189839A83AB83BC83E4
:102A800089819A81AB81BC812FEFAC01BD018AE0C5
:102A90000E94FD13000028960FB6F894DEBF0FBE0B
:102AA000CDBFDF91CF910895CF93DF93CDB7DEB740
:102AB00068970FB6F894DEBF0FBECDBFCE014F961C
:102AC000988F8F8B8D8D9E8D9A83898394C18981F8
:102AD0009A81FC01808189878985853209F083C1CB
:102AE00089819A8101969A83898389819A81FC01DF
:102AF000808189878985803304F189858A33ECF464
:102B00001A8614C08A85880F982F990F990F980FED
:102B10008985890F80538A8789819A8101969A8352
:102B2000898389819A81FC018081898789858033A5
:102B30003CF089858A3334F303C08FEF8A8701C064
:102B400000008985082E000C990B092E000CAA0B99
:102B5000BB0B45E250E023E530E0841B950B2817C2
:102B6000390708F443C18C5C9F4FFC010C948D190C
:102B70008F89988D9C012E5F3F4F388F2F8BFC01E2
:102B800080819181898789850E9498112FC18F89C1
:102B9000988D9C012E5F3F4F388F2F8BFC018081D9
:102BA00091819C838B838B819C81992354F48B81AD
:102BB0009C819195819591099C838B838DE20E94E4
:102BC00098118B819C81092E000CAA0BBB0B2A85C6
:102BD000AC01BD018AE00E94FD1308C18F89988D68
:102BE0009C012C5F3F4F388F2F8BFC01808191819E
:102BF000A281B3818D839E83AF83B8878D819E81AF
:102C0000AF81B885BB2394F48D819E81AF81B88557
:102C1000B095A095909581959F4FAF4FBF4F8D83F5
:102C20009E83AF83B8878DE20E9498118D819E812B
:102C3000AF81B8852A85AC01BD018AE00E94FD13F1
:102C4000D5C08F89988D9C012E5F3F4F388F2F8B79
:102C5000FC01808191819C878B878B859C85CC0131
:102C6000A0E0B0E02A85AC01BD018AE00E94FD131E
:102C7000BDC08F89988D9C012C5F3F4F388F2F8B63
:102C8000FC0180819181A281B3818D879E87AF876E
:102C9000B88B8D859E85AF85B8892A85AC01BD012D
:102CA0008AE00E94FD13A2C08F89988D9C012E5F3F
:102CB0003F4F388F2F8BFC01808191819C878B87C0
:102CC0008B859C85CC01A0E0B0E02A85AC01BD01DC
:102CD00080E10E94FD138AC08F89988D9C012C5F32
:102CE0003F4F388F2F8BFC0180819181A281B3816E
:102CF0008D879E87AF87B88B8D859E85AF85B88978
:102D00002A85AC01BD0180E10E94FD136FC08F894F
:102D1000988D9C012E5F3F4F388F2F8BFC01808157
:102D200091819C878B878A858F3F11F480E18A8708
:102D30008B859C85CC01A0E0B0E02A85AC01BD016B
:102D400082E00E94FD1352C08F89988D9C012C5FF8
:102D50003F4F388F2F8BFC0180819181A281B381FD
:102D60008D879E87AF87B88B8A858F3F11F480E16E
:102D70008A878D859E85AF85B8892A85AC01BD017E
:102D800082E00E94FD1332C08F89988D9C012C5FD8
:102D90003F4F388F2F8BFC0180819181A281B381BD
:102DA000898B9A8BAB8BBC8B89899A89AB89BC89BF
:102DB000BC01CD010E94ED1419C08F89988D9C0132
:102DC0002E5F3F4F388F2F8BFC01808191819E8B2E
:102DD0008D8B8D899E890E94E51108C085E20E9435
:102DE0009811000003C089850E94981189819A81F9
:102DF00001969A83898389819A81FC018081882345
:102E000009F065CE000068960FB6F894DEBF0FBEDD
:102E1000CDBFDF91CF910895CF93DF9300D0CDB791
:102E2000DEB781E20E94F61880E00E94F6188FE774
:102E30000E94F61882E20E94F61880E00E94F618BE
:102E400087E00E94F6188CE30E94CD1880E40E946F
:102E5000E8181A82198208C080E00E94E818898167
:102E60009A8101969A83898389819A8181159440F8
:102E70009CF381E20E94F61880E00E94F6188FE72A
:102E80000E94F61882E20E94F61880E00E94F6186E
:102E900087E00E94F6188CE30E94CD1880E40E941F
:102EA000E81800000F900F90DF91CF910895CF9315
:102EB000DF931F92CDB7DEB789838981883040F4D4
:102EC0008981809328038091280360E00E94841701
:102ED00000000F90DF91CF910895CF93DF93CDB78E
:102EE000DEB7809128038F5F8093280380912803A9
:102EF0008770809328038091280360E00E948417E4
:102F00000000DF91CF910895CF93DF9300D0CDB72C
:102F1000DEB789836A838981883008F58A818823AE
:102F2000F4F08981809328038A818093290381E2C8
:102F30000E94F6188A810E94F6188FE70E94F61800
:102F400082E20E94F61889810E94F61887E00E94AA
:102F5000F6188CE30E94CD1880E40E94E818000067
:102F60000F900F90DF91CF910895CF93DF9300D012
:102F700000D0CDB7DEB79C838B8360E080E00E94F9
:102F800084178CE30E94CD1880E40E94E8181A820E
:102F900019820FC089819A812B813C81820F931FF6
:102FA000FC0180810E94E81889819A8101969A83A8
:102FB000898389819A818115944064F300000F9080
:102FC0000F900F900F90DF91CF910895CF93DF93E3
:102FD000CDB7DEB728970FB6F894DEBF0FBECDBFD2
:102FE0008F8368878F81853008F061C0888585363A
:102FF00008F05DC08F818295880F807E8C838C81E4
:10300000885F682F80E00E9484178885882F90E071
:10301000A0E0B0E023E0AC01BD018AE00E94FD1316
:1030200088858695888788858695869586958D83FB
:1030300097E08D81292F281B822F8E8381E0898341
:1030400033C08C81845F682F89810E9484179981A5
:103050008E81981710F41B8219C099818E81981760
:1030600099F4888587708B838B81882F90E028E086
:1030700030E0281B390B8FEF90E002C0880F991FBA
:103080002A95E2F78B8302C08FEF8B831A8206C0EA
:103090008B810E94E8188A818F5F8A838A818C30B5
:1030A000B8F389818F5F89838981883050F200006D
:1030B00028960FB6F894DEBF0FBECDBFDF91CF913B
:1030C0000895CF93DF9300D000D0CDB7DEB78B83C8
:1030D0006C838B81880F8F5F8A838B81853070F53D
:1030E0008C81853658F560E08A810E9484171982A8
:1030F00006C08FEF0E94E81889818F5F89839981CC
:103100008C819817B0F38C81898306C080E00E947F
:10311000E81889818F5F898389818436B8F369E6ED
:103120008A810E9484178C81882F90E0A0E0B0E013
:1031300023E0AC01BD018AE00E94FD1300000F9066
:103140000F900F900F90DF91CF910895CF93DF9361
:10315000CDB7DEB787EA0E94F6180000DF91CF9165
:103160000895CF93DF93CDB7DEB786EA0E94F618B5
:103170000000DF91CF910895CF93DF931F92CDB7D9
:10318000DEB7898381E80E94F61889810E94F618CB
:1031900000000F90DF91CF910895CF93DF931F929E
:1031A000CDB7DEB7898380E00E94BD0089810E948F
:1031B000F40000000F90DF91CF910895CF93DF933B
:1031C000CDB7DEB70E9416020000DF91CF910895BF
:1031D000CF93DF931F92CDB7DEB7898389810E9499
:1031E000690100000F90DF91CF910895CF93DF9395
:1031F0001F92CDB7DEB789838CE30E94CD1880E0A3
:103200000E94E81889810E94E8180E94DE180000D8
:103210000F90DF91CF910895CF93DF93CDB7DEB7B5
:1032200084E290E024E230E0F90120812C63FC018B
:1032300020830000DF91CF910895CF93DF93CDB726
:10324000DEB70E94C30660E080E00E94830D8BED34
:1032500092E00E94BA0D0000DF91CF910895CF93C4
:10326000DF93CDB7DEB784E290E024E230E0F901ED
:1032700020812C7FFC0120830000DF91CF910895F5
:10328000CF93DF93CDB7DEB78CE790E02CE730E04B
:10329000F90120812064FC0120838AE790E02AE77D
:1032A00030E0F90120812768FC0120830000DF91D4
:1032B000CF910895CF93DF93CDB7DEB787E290E04B
:1032C00027E230E0F90120812E62FC01208300001A
:1032D000DF91CF910895A1E21A2EAA1BBB1BFD011D
:1032E0000DC0AA1FBB1FEE1FFF1FA217B307E407E5
:1032F000F50720F0A21BB30BE40BF50B661F771F3D
:10330000881F991F1A9469F760957095809590951C
:103310009B01AC01BD01CF010895EE0FFF1F059089
:10332000F491E02D09945058BB27AA270E94AB19AD
:103330000C941E1B0E94101B38F00E94171B20F0DB
:1033400039F49F3F19F426F40C940D1B0EF4E0950C
:10335000E7FB0C94071BE92F0E942F1B58F3BA17A9
:10336000620773078407950720F079F4A6F50C949B
:10337000511B0EF4E0950B2EBA2FA02D0B01B901B5
:1033800090010C01CA01A0011124FF27591B99F0DB
:10339000593F50F4503E68F11A16F040A22F232FE7
:1033A000342F4427585FF3CF469537952795A79537
:1033B000F0405395C9F77EF41F16BA0B620B730BDE
:1033C000840BBAF09150A1F0FF0FBB1F661F771F4F
:1033D000881FC2F70EC0BA0F621F731F841F48F404
:1033E000879577956795B795F7959E3F08F0B0CF8D
:1033F0009395880F08F09927EE0F97958795089574
:103400000E94E31A08F481E008950E94191A0C94AE
:103410001E1B0E94171B58F00E94101B40F029F43D
:103420005F3F29F00C94071B51110C94521B0C9414
:103430000D1B0E942F1B68F39923B1F3552391F3C1
:10344000951B550BBB27AA2762177307840738F013
:103450009F5F5F4F220F331F441FAA1FA9F335D070
:103460000E2E3AF0E0E832D091505040E695001C24
:10347000CAF72BD0FE2F29D0660F771F881FBB1FDE
:10348000261737074807AB07B0E809F0BB0B802DBC
:10349000BF01FF2793585F4F3AF09E3F510578F0E8
:1034A0000C94071B0C94521B5F3FE4F3983ED4F33B
:1034B000869577956795B795F7959F5FC9F7880FBC
:1034C000911D9695879597F90895E1E0660F771F0E
:1034D000881FBB1F621773078407BA0720F0621B9F
:1034E000730B840BBA0BEE1F88F7E09508950E94CA
:1034F000371B88F09F5798F0B92F9927B751B0F034
:10350000E1F0660F771F881F991F1AF0BA95C9F767
:1035100014C0B13091F00E94511BB1E008950C9499
:10352000511B672F782F8827B85F39F0B93FCCF34C
:10353000869577956795B395D9F73EF490958095E4
:10354000709561957F4F8F4F9F4F0895E89409C004
:1035500097FB3EF490958095709561957F4F8F4FC6
:103560009F4F9923A9F0F92F96E9BB279395F695DC
:10357000879577956795B795F111F8CFFAF4BB0F5A
:1035800011F460FF1BC06F5F7F4F8F4F9F4F16C0BE
:10359000882311F096E911C0772321F09EE8872F48
:1035A000762F05C0662371F096E8862F70E060E004
:1035B0002AF09A95660F771F881FDAF7880F96957D
:1035C000879597F90895990F0008550FAA0BE0E821
:1035D000FEEF16161706E807F907C0F012161306D5
:1035E000E407F50798F0621B730B840B950B39F415
:1035F0000A2661F0232B242B252B21F408950A267B
:1036000009F4A140A6958FEF811D811D089597F9BA
:103610009F6780E870E060E008959FEF80EC089578
:1036200000240A94161617061806090608950024A1
:103630000A9412161306140605060895092E03941B
:10364000000C11F4882352F0BB0F40F4BF2B11F48F
:1036500060FF04C06F5F7F4F8F4F9F4F089557FDEE
:103660009058440F551F59F05F3F71F04795880FF0
:1036700097FB991F61F09F3F79F087950895121687
:1036800013061406551FF2CF4695F1DF08C0161633
:1036900017061806991FF1CF8695710561050894E4
:1036A0000895E894BB2766277727CB0197F90895FB
:1036B0000E94E31A08F48FEF08950E94701B0C9487
:1036C0001E1B0E94101B38F00E94171B20F0952330
:1036D00011F00C94071B0C940D1B11240C94521B1D
:1036E0000E942F1B70F3959FC1F3950F50E0551F5B
:1036F000629FF001729FBB27F00DB11D639FAA2747
:10370000F00DB11DAA1F649F6627B00DA11D661F95
:10371000829F2227B00DA11D621F739FB00DA11DB6
:10372000621F839FA00D611D221F749F3327A00D70
:10373000611D231F849F600D211D822F762F6A2F0C
:1037400011249F5750409AF0F1F088234AF0EE0F71
:10375000FF1FBB1F661F771F881F91505040A9F79E
:103760009E3F510580F00C94071B0C94521B5F3F49
:10377000E4F3983ED4F3869577956795B795F795DA
:10378000E7959F5FC1F7FE2B880F911D9695879552
:0837900097F90895F894FFCFAA
:10379800000000000000002F0000000700070014D0
:1037A8007F147F14242A7F2A12231308646236495F
:1037B8005522500005030000001C22410000412250
:1037C8001C0014083E081408083E08080000A06001
:1037D80000080808080800606000002010080402BB
:1037E8003E5149453E00427F4000426151494621D1
:1037F80041454B311814127F1027454545393C4A3D
:10380800494930017109050336494949360649498C
:10381800291E0036360000005636000008142241E2
:10382800001414141414004122140802015109064A
:10383800324959513E7C1211127C7F494949363E22
:10384800414141227F4141221C7F494949417F0929
:103858000909013E4149497A7F0808087F00417FEC
:1038680041002040413F017F081422417F404040F1
:10387800407F020C027F7F0408107F3E4141413E99
:103888007F090909063E4151215E7F0919294646EB
:103898004949493101017F01013F4040403F1F2014
:1038A80040201F3F4038403F6314081463070870E6
:1038B80008076151494543007F41410055AA55AA6F
:1038C800550041417F00040201020440404040404D
:1038D800000305000020545454787F484444383885
:1038E80044444420384444487F3854545418087E8B
:1038F80009010218A4A4A47C7F0804047800447D6C
:1039080040004080847D007F1028440000417F40B3
:10391800007C041804787C0804047838444444384B
:10392800FC2424241818242418FC7C0804040848BF
:1039380054545420043F4440203C4040207C1C20E8
:1039480040201C3C4030403C44281028441CA0A087
:10395800A07C4464544C4400107C82000000FF00AA
:103968000000827C1000000609090648656C6C6F2F
:0839780020576F726C642100FE
:00000001FF
