:100000000C9434000C9451000C9451000C94510049
:100010000C9451000C9451000C9451000C9451001C
:100020000C9451000C9451000C9451000C9451000C
:100030000C9451000C9453000C9451000C945100FA
:100040000C9451000C9451000C9451000C945100EC
:100050000C9451000C9451000C9451000C945100DC
:100060000C9451000C94510011241FBECFEFD8E026
:10007000DEBFCDBF13E0A0E0B1E0E2E1F7E102C0F6
:1000800005900D92AA38B107D9F723E0AAE8B3E0AA
:1000900001C01D92A93DB207E1F70E947A090C94B4
:1000A000870B0C9400001F920F920FB60F92112431
:1000B0002F933F934F935F936F937F938F939F9370
:1000C000AF93BF93EF93FF9387EC9EEF90938500E0
:1000D000809384000E949F00FF91EF91BF91AF91A8
:1000E0009F918F917F916F915F914F913F912F9150
:1000F0000F900FBE0F901F9018959C018FEF860FE9
:100100008A30B8F490918A039A30B0F486E0989FD0
:10011000F0011124E557FC4F31832083628355831E
:10012000448381E083839F5F90938A0380E090E023
:10013000089582E090E0089583E090E00895209192
:100140008A03EBE8F3E090E031E041E050E0921701
:1001500091F0648175816230710551F08381628113
:10016000861720F033835583448302C08F5F8383D7
:100170009F5F3696ECCF08950F931F93CF93DF9335
:1001800010E006E080918A03181780F4019FE001D7
:100190001124C557DC4F8C819D81019729F4E8819A
:1001A000F98109951D821C821F5FECCFDF91CF91F1
:1001B0001F910F91089526E0829FC0011124FC0138
:1001C000E557FC4F84819581089526E0829FC00108
:1001D0001124FC01E557FC4F8281089526E0829F9F
:1001E000C0011124FC01E557FC4F8381089526E0EE
:1001F000829FC0011124FC01E557FC4F7583648385
:10020000089526E0829FC0011124FC01E557FC4FB0
:100210006283089526E0829FC0011124FC01E55706
:10022000FC4F6383089581E090E00E9498048093DE
:10023000D20380E090E00E949804880F991F90916B
:10024000D203892B8093D20381E08093D10382E093
:1002500090E00E94650483E090E00E94650484E0E1
:1002600090E00E94650485E090E00E947A0480910D
:10027000CD03811103C084E090E009C0843018F4FC
:1002800083E090E004C08430B1F382E090E00C940D
:10029000700460E080E00E943B048EEF92E00E94D8
:1002A000510461E080E00E943B048EEF92E00E94E6
:1002B00051048091CD0360E0811105C00E943B0490
:1002C0008FE093E03DC0813031F480E00E943B0438
:1002D0008DE193E00FC0823031F480E00E943B0456
:1002E00088E393E007C0833071F480E00E943B0410
:1002F00087E493E00E94510461E080E00E943B04A7
:100300008CE293E01DC0843071F480E00E943B04D5
:100310008EEF92E00E94510460E080E00E943B0476
:1003200086E593E00DC0853031F480E00E943B0407
:1003300083E693E005C080E00E943B0484E793E0FD
:100340000C9451048091CD03811102C00C940105DD
:10035000843050F46091D60381500E949F086091D0
:10036000D50383E00C949F0808958091CD038430D9
:1003700011F58091CC03811105C081E090E00E94CD
:10038000D1041DC0813049F481E090E00E94DC047A
:1003900082E090E00E94D10416C0823061F481E0D6
:1003A00090E00E94DC0482E090E00E94DC0483E0A4
:1003B00090E00C94D10481E090E00E94DC0482E0A3
:1003C00090E00E94DC0483E090E00C94DC040E9446
:1003D000BE049093D4038093D30308958091CD03FA
:1003E000811110C08091D103813009F0CFC090916C
:1003F000D20391FFCBC08093CD031092D103109212
:10040000D503C4C0813011F58091D103813009F04A
:10041000BDC09091D20390FF09C08091D60384366D
:1004200018F4865F8093D6031092D10391FFAEC07B
:1004300082E08093CD032091D603822F6AE00E9450
:10044000C2098093CB032093D5032CC0823079F569
:100450008091D103813009F099C09091D20390FF2F
:1004600010C08091D6034091D503282F30E0240F8F
:10047000311D243631051CF4865F8093D60310921B
:10048000D10391FF83C083E08093CD038091D60395
:100490009091D503980F9093D5036AE00E94C2090A
:1004A0008093CA031092D6031092D1036FC0833099
:1004B00059F58091D103813009F068C09091D20341
:1004C00090FF10C08091D6034091D503282F30E0D3
:1004D000240F311D2B3531051CF4865F8093D60324
:1004E0001092D10391FF52C084E08093CD0380919C
:1004F000D6039091D503980F9093D5036AE00E949C
:10050000C2098093C903CECF843009F03FC08091E7
:10051000C7039091C80301969093C8038093C703C3
:100520002091CC0321110CC0209100013091CB030C
:10053000239F900111248217930740F181E01BC093
:10054000213061F4209100013091CA03239F900172
:10055000112482179307D0F082E00DC0223071F48D
:10056000209100013091C903239F9001112482172B
:10057000930760F083E08093CC0304C01092CC0317
:100580001092CD031092C8031092C7038091D30339
:100590009091D4038739910518F085E08093CD03BD
:1005A0000895E9EBF0E080818C7F808388E380937D
:1005B000B80008958093CE038091BC00846A809334
:1005C000BC008091BC0087FFFCCF8091B900887F80
:1005D000883021F0803111F08EEF08958FEF08956B
:1005E000880F9091CE03892B8093BB008091BC0033
:1005F0008F7D8093BC008091BC0080688093BC009C
:100600008091BC0087FFFCCF8091CE03811107C091
:100610008091B900887F883189F48FEF0895813007
:1006200059F4E091B900E87FE853E13138F4F0E0A3
:10063000EE5EFE4F8081089580E008958EEF08956C
:100640008093BB008091BC0080688093BC00809147
:10065000BC0087FFFCCFE091B900E87FE852E131B0
:1006600028F4F0E0EF5FFE4F808108958EEF08954B
:1006700083E3815031F09091BC0097FFFACF8DEF6A
:1006800008958CEF0895811104C08091BC008064AE
:1006900003C08091BC008F7B8093BC008091BC0024
:1006A00080688093BC000E9438038091B900887FE5
:1006B000803511F0883519F48091BB0008958EEFD4
:1006C00008958091BC0080698093BC008091BC003B
:1006D00084FFFCCF0895529A519A509A549A559A91
:1006E000569A579A089580FD5C9A80FF5C989BB15A
:1006F00081FB442740F950E025E0440F551F2A951F
:10070000E1F79F7D492B4BB99BB182FB222720F952
:1007100030E046E0220F331F4A95E1F79F7B292BFB
:100720002BB983FB882780F980FD5F9A80FF5F9853
:100730000895611102C05A9801C05A9A5998589860
:10074000589A0E94730358980895CF93DF93C82F47
:10075000D62F82958F700E9499036D2F8C2F8F70EA
:100760000E94990385ED8A95F1F70000DF91CF9102
:100770000895CF93C82F8FE39CE90197F1F700C04C
:10078000000060E08C2F82958F700E9499038FE3A8
:100790009CE90197F1F700C0000060E08C2F8F709A
:1007A000CF910C949903CF93C82F60E082958F70FE
:1007B0000E94990360E08C2F8F70CF910C94990365
:1007C0005A98599A2B985898589A83B1589892E009
:1007D0009A95F1F700C083FDF6CF2B9A59980895AA
:1007E0002FEF80E792E0215080409040E1F700C079
:1007F00000000E946B0383E00E94D3038FE19EE41C
:100800000197F1F700C0000083E00E94D3038FE757
:1008100092E00197F1F700C0000083E00E94D3034B
:100820008FE792E00197F1F700C0000082E00E949C
:10083000D3038FE39CE90197F1F700C0000088E241
:100840000E94D3038FE39CE90197F1F700C00000F9
:100850008CE00E94D3038FE39CE90197F1F700C07D
:10086000000080E80E94D3038FE39CE90197F1F731
:1008700000C00000089588329CF4613059F024F4DF
:1008800061110BC0806809C0623031F0633029F417
:10089000846D03C0806C01C0846960E00C94A50382
:1008A00008950F931F93CF938C01C0E0F801EC0FD4
:1008B000F11D8081882329F061E00E94A503CF5FAC
:1008C000F5CFCF911F910F91089595B121E030E0C0
:1008D00001C0220F8A95EAF72095292325B90895AA
:1008E00095B121E030E001C0220F8A95EAF7292B6B
:1008F00025B9089595B121E030E001C0220F8A9515
:10090000EAF7292725B9089543B121E030E0082E00
:1009100002C0220F331F0A94E2F750E0242335234C
:10092000A90102C0559547958A95E2F7CA01089535
:1009300043B121E030E0082E02C0220F331F0A9499
:10094000E2F750E02423352302C0359527958A9598
:10095000E2F78091CF039091D0032817390759F01F
:100960003093D0032093CF0381E090E02130310514
:1009700021F080E0089580E090E0089580917C006F
:10098000807F80937C0080917A00806480937A00DD
:1009900080917A0086FDFCCF80917800909179005B
:1009A000089598B121E030E001C0220F8A95EAF75E
:1009B0002095292328B9089598B121E030E001C09D
:1009C000220F8A95EAF7292B28B90895CF93C82FCB
:1009D00080E00E94DA028C2FCF910C94F0020C94EC
:1009E00061030C942003CF93C82F8CE30E94E6048C
:1009F00080E00E9420038C2F0E942003CF910C9452
:100A00006103CF93DF9381E20E94F30480E00E94B0
:100A1000F3048FE70E94F30482E20E94F30480E073
:100A20000E94F30487E00E94F3048CE30E94E60432
:100A300080E40E942003C0E0D4E080E00E94200314
:100A40002197D9F781E20E94F30480E00E94F30429
:100A50008FE70E94F30482E20E94F30480E00E9488
:100A6000F30487E00E94F3048CE30E94E60480E430
:100A7000DF91CF910C9420030E94D1028EEA0E9454
:100A8000F30485ED0E94F30480E80E94F30488EAF1
:100A90000E94F3048FE30E94F30483ED0E94F304A9
:100AA00080E00E94F30480E40E94F3048DE80E9439
:100AB000F30484E10E94F30480E20E94F30480E0E6
:100AC0000E94F30481EA0E94F30488EC0E94F3047C
:100AD0008AED0E94F30482E10E94F30481E80E94FF
:100AE000F3048FEC0E94F30489ED0E94F30481EF7C
:100AF0000E94F3048BED0E94F30480E40E94F3044F
:100B000084EA0E94F30486EA0E94F3048FEA0E94BA
:100B1000F3040C940105CF93DF93C82FD62F809355
:100B2000D7036093D80381E20E94F3048D2F0E94C3
:100B3000F3048FE70E94F30482E20E94F3048C2FF7
:100B40000E94F30487E00E94F3048CE30E94E60411
:100B500080E4DF91CF910C942003883018F467FF74
:100B60000C948B0508957F928F929F92AF92BF92C3
:100B7000CF92DF92EF92FF920F931F93CF93DF9369
:100B8000882E7B0127E0281708F4812C912CF7018F
:100B9000E90DF11D8081882309F440C0D6E06F0182
:100BA000CD2F6D2F882D0E94AD05712CF601E70D1C
:100BB000F11D0081002329F1C7FD23C0005285E00B
:100BC000089F80011124A12CB12CC7FD10C0F50194
:100BD000E00FF11FED5DFE4F80810E942003CF5F8B
:100BE0009FEFA91AB90A25E0A216B10471F780E0B7
:100BF0000E94200385E38A95F1F70000CF5F73948C
:100C0000D5CF9FEF29EF80E0915020408040E1F761
:100C100000C00000D15021F69394B9CFDF91CF915D
:100C20001F910F91FF90EF90DF90CF90BF90AF900A
:100C30009F908F907F900895883028F48093D703F9
:100C400060E00C94AD0508958091D7038F5F8770A5
:100C50008093D70360E00C94AD050F931F93CF935F
:100C6000DF93C82F8091D80390E08B37910554F41F
:100C7000CA3041F0C05285E0C89FE001112400E075
:100C800010E005C00E942406CA30A1F71AC0F8017E
:100C9000EC0FFD1FED5DFE4F80810E9420038091CF
:100CA000D8038F5F8093D8030F5F1F4F0530110566
:100CB00071F780E00E9420038091D8038F5F8093BA
:100CC000D803DF91CF911F910F910895CF93DF93B8
:100CD000EC018991882319F00E942D06FACFDF914B
:100CE000CF9108954F925F926F927F928F929F92D1
:100CF000AF92BF92CF92DF92EF92FF920F931F932A
:100D0000CF93DF93CDB7DEB72A970FB6F894DEBF47
:100D10000FBECDBF982E6A017B01122F82E0981280
:100D200021C0AA24A394B12C112309F461C08FEF30
:100D3000810FA50102C0440F551F8A95E2F7052EC9
:100D4000000C660B770B4C215D216E217F2181E029
:100D5000452B462B472B09F480E0805D0E942D0631
:100D60001150E2CF452B462B472B11F400E03EC03B
:100D7000FE0131965F0100E0492C512C612C712C51
:100D8000101749F1C114D104E104F10479F08C2C5D
:100D9000C701B601A30192010E94CE0969017A013F
:100DA000929E80181124F501808204C01B3038F413
:100DB000F50110820F5FFFEFAF1ABF0AE1CF102FCE
:100DC0000AC0FE01E10FF11D80818A3038F0895C94
:100DD0000E942D0611501111F4CF0AC0805DF8CF8A
:100DE0000A3031F080E30E942D060F5F0113F8CF27
:100DF0002A960FB6F894DEBF0FBECDBFDF91CF911C
:100E00001F910F91FF90EF90DF90CF90BF90AF9028
:100E10009F908F907F906F905F904F9008958F92EA
:100E20009F92AF92BF92CF92DF92EF92FF926B01AF
:100E30007C010E945D0A4B015C012FEFAB01BC01FC
:100E40008AE00E9472068EE20E942D06C501B4015E
:100E50000E948C0A9B01AC01C701B6010E94F009F7
:100E600020E034E244E759E40E941A0B0E945D0A34
:100E7000AB01BC012FEF8AE0FF90EF90DF90CF90A5
:100E8000BF90AF909F908F900C9472064F925F929C
:100E90006F927F92AF92BF92CF92DF92FF920F93A9
:100EA0001F93CF93DF93CDB7DEB7FE017096A1906D
:100EB000B1908F01F5018081882309F432C1853218
:100EC00009F014C165018FEFC81AD80AF501218114
:100ED00080ED820F8A3008F0B6C0F12C80ED820FD1
:100EE0008A3068F4FAE0FF9E200D112430EDF32ED5
:100EF000F20E8FEFC81AD80AF6012081EFCF2835FD
:100F000009F4A6C074F4243409F44FC01CF422344C
:100F1000D9F4BEC0233509F4DEC0253509F478C004
:100F2000CAC0263609F4C9C044F4233681F02436F9
:100F300021F1223609F0DDC09CC0253709F453C0E9
:100F4000283709F476C0C5C023340CF4E4C0580136
:100F5000F2E0AF0EB11CF80180810E942D06C4C0E2
:100F60002935FCF0263609F4A8C0CCF5233679F3F0
:100F7000243609F079C0FF24FA945801F2E0AF0E4C
:100F8000B11CF8010081118117FF06C01195019570
:100F900011098DE20E942D06A801110F660B770B37
:100FA00040C0243451F5FF24FA945801F4E0AF0E08
:100FB000B11CF801408051806280738077FE0BC0C5
:100FC0007094609450944094411C511C611C711C9D
:100FD0008DE20E942D062F2DB301A20123C02537DB
:100FE00019F5FF24FA945801F2E0AF0EB11CF80194
:100FF0004081518160E070E014C025340CF47EC063
:10100000233509F468C0253509F055C0FF24FA944A
:101010005801F4E0AF0EB11CF801408151816281AA
:1010200073812F2D8AE044C0283709F052C0FF2475
:10103000FA945801F2E0AF0EB11CF80140815181E1
:1010400060E070E00EC0283509F08ACFFF24FA94E2
:101050005801F4E0AF0EB11CF8014081518162816A
:1010600073812F2D80E124C0223609F042C0FF2475
:10107000FA945801F2E0AF0EB11CF80140815181A1
:10108000FFEFFF1202C090E1F92E60E070E00EC0A9
:10109000580184E0A80EB11CF801408151816281A1
:1010A0007381FFEFFF1202C080E1F82E2F2D82E046
:1010B0000E94720619C02634E1F4580184E0A80E9B
:1010C000B11CF80160817181828193810E940F07B8
:1010D0000BC0233771F45801F2E0AF0EB11CF801D8
:1010E000808191810E946606850103C00E942D06C1
:1010F00065015601FFEFAF1ABF0ADCCE223409F0BA
:1011000023CF5801F4E0AF0EB11CF80140815181AA
:1011100062817381C9CF253261F785E20E942D0675
:10112000E8CFDF91CF911F910F91FF90DF90CF908B
:10113000BF90AF907F906F905F904F900895EF9227
:10114000FF920F931F93CF93DF93853008F040C039
:101150006536F0F5C62FD82FD295DD0FD07E68E02A
:101160006D0F80E00E94AD054C2F50E060E070E014
:1011700023E08AE00E947206C6958C2F869586959C
:10118000869507E0081BC77088E090E08C1B9109EA
:101190001FEF01C0110F8A95EAF7C1E0D45F6D2FF0
:1011A0008C2F0E94AD05C01728F00C1729F0EE24F3
:1011B000EA9403C0E12C01C0E12E8CE0F82E8E2DC4
:1011C0000E942003FA94F110FACFCF5FC83039F7AC
:1011D000DF91CF911F910F91FF90EF9008951F9392
:1011E000CF93DF93853048F5653638F5D62FC82F75
:1011F000CC0FCF5F60E08C2F0E94AD0510E01D1773
:1012000029F08FEF0E9420031F5FF9CF1D2F1436A6
:1012100029F080E00E9420031F5FF9CF69E68C2F40
:101220000E94AD054D2F50E060E070E023E08AE0C1
:10123000DF91CF911F910C947206DF91CF911F9196
:1012400008950F931F93CF93DF938C0160E080E0AC
:101250000E948B058CE30E94E60480E40E94200338
:10126000E8011C5F89910E942003C017D107D1F7C4
:10127000DF91CF911F910F91089587EA0C94F304A9
:1012800086EA0C94F304CF93C82F81E80E94F304FC
:101290008C2FCF910C94F30484B18C6384B908959E
:1012A0000E94F00360E080E00E943B048CE793E042
:1012B0000C94510484B18C7F84B90895ECE7F0E07C
:1012C000808180648083EAE7F0E0808187688083A2
:1012D000089587B18E6087B981E090E00E94DC04B8
:1012E00082E090E00E94DC0483E090E00C94DC0457
:1012F0000C943C050E944C090E9450090E945A0916
:101300000E945E090E9469090E94780987EC9EEF9D
:1013100090938500809384001092800085E08093F4
:10132000810081E080936F00789440E050E061E0BC
:1013300083E191E00E947D0040E050E066E089E4B6
:1013400091E00E947D0040E050E066E082EA91E09A
:101350000E947D0040E050E066E085EB91E00E9455
:101360007D0040E050E066E087EE91E00E947D0065
:1013700040E050E066E08EEE91E00E947D000E9429
:10138000BC00FDCF991B79E004C0991F961708F0A7
:10139000961B881F7A95C9F780950895A1E21A2EA9
:1013A000AA1BBB1BFD010DC0AA1FBB1FEE1FFF1F09
:1013B000A217B307E407F50720F0A21BB30BE40B59
:1013C000F50B661F771F881F991F1A9469F76095A0
:1013D0007095809590959B01AC01BD01CF0108955A
:1013E0005058BB27AA270E94080A0C94E00A0E94C2
:1013F000D20A38F00E94D90A20F039F49F3F19F43C
:1014000026F40C94CF0A0EF4E095E7FB0C94C90A7D
:10141000E92F0E94F10A58F3BA176207730784078D
:10142000950720F079F4A6F50C94130B0EF4E095D3
:101430000B2EBA2FA02D0B01B90190010C01CA018E
:10144000A0011124FF27591B99F0593F50F4503E39
:1014500068F11A16F040A22F232F342F4427585F2B
:10146000F3CF469537952795A795F0405395C9F743
:101470007EF41F16BA0B620B730B840BBAF09150FB
:10148000A1F0FF0FBB1F661F771F881FC2F70EC09A
:10149000BA0F621F731F841F48F48795779567956D
:1014A000B795F7959E3F08F0B0CF9395880F08F059
:1014B0009927EE0F9795879508950E94F90A88F06D
:1014C0009F5798F0B92F9927B751B0F0E1F0660F08
:1014D000771F881F991F1AF0BA95C9F714C0B13049
:1014E00091F00E94130BB1E008950C94130B672F39
:1014F000782F8827B85F39F0B93FCCF38695779578
:101500006795B395D9F73EF4909580957095619560
:101510007F4F8F4F9F4F0895E89409C097FB3EF48B
:1015200090958095709561957F4F8F4F9F4F992330
:10153000A9F0F92F96E9BB279395F69587957795AE
:101540006795B795F111F8CFFAF4BB0F11F460FF6E
:101550001BC06F5F7F4F8F4F9F4F16C0882311F0C6
:1015600096E911C0772321F09EE8872F762F05C0DA
:10157000662371F096E8862F70E060E02AF09A9575
:10158000660F771F881FDAF7880F9695879597F96A
:10159000089597F99F6780E870E060E008959FEFF5
:1015A00080EC089500240A941616170618060906FA
:1015B000089500240A9412161306140605060895C9
:1015C000092E0394000C11F4882352F0BB0F40F451
:1015D000BF2B11F460FF04C06F5F7F4F8F4F9F4F91
:1015E000089557FD9058440F551F59F05F3F71F013
:1015F0004795880F97FB991F61F09F3F79F087957A
:101600000895121613061406551FF2CF4695F1DF02
:1016100008C0161617061806991FF1CF8695710592
:10162000610508940895E894BB2766277727CB01C6
:1016300097F908950E942D0B0C94E00A0E94D20A9B
:1016400038F00E94D90A20F0952311F00C94C90AB1
:101650000C94CF0A11240C94140B0E94F10A70F31D
:10166000959FC1F3950F50E0551F629FF001729F47
:10167000BB27F00DB11D639FAA27F00DB11DAA1F56
:10168000649F6627B00DA11D661F829F2227B00DA3
:10169000A11D621F739FB00DA11D621F839FA00D2E
:1016A000611D221F749F3327A00D611D231F849F7E
:1016B000600D211D822F762F6A2F11249F575040D5
:1016C0009AF0F1F088234AF0EE0FFF1FBB1F661F50
:1016D000771F881F91505040A9F79E3F510580F019
:1016E0000C94C90A0C94140B5F3FE4F3983ED4F3B6
:1016F000869577956795B795F795E7959F5FC1F7BD
:10170000FE2B880F911D9695879597F90895F8946B
:02171000FFCF09
:101712004BFFFEFEFEFEFEFEFEFEFEFEFEFEFEFE99
:10172200FEFEFEFEFEFEFEFEFEFEFFFEFEFEFEFED6
:10173200FEFEFE000000000000002F000000070077
:101742000700147F147F14242A7F2A1223130864AB
:101752006236495522500005030000001C22410058
:101762000041221C0014083E081408083E08080024
:1017720000A060000808080808006060000020104F
:101782000804023E5149453E00427F4000426151F9
:1017920049462141454B311814127F1027454545D2
:1017A200393C4A49493001710905033649494936EC
:1017B200064949291E003636000000563600000848
:1017C20014224100141414141400412214080201BA
:1017D200510906324959513E7C1211127C7F494906
:1017E20049363E414141227F4141221C7F494949BC
:1017F200417F090909013E4149497A7F0808087F6A
:1018020000417F41002040413F017F081422417F77
:10181200404040407F020C027F7F0408107F3E411F
:1018220041413E7F090909063E4151215E7F091966
:101832002946464949493101017F01013F40404063
:101842003F1F2040201F3F4038403F63140814636D
:1018520007087008076151494543007F414100551F
:10186200AA55AA550041417F0004020102044040EA
:10187200404040000305000020545454787F4844FF
:1018820044383844444420384444487F38545454FB
:1018920018087E09010218A4A4A47C7F0804047815
:1018A20000447D40004080847D007F102844000079
:1018B200417F40007C041804787C08040478384492
:1018C200444438FC2424241818242418FC7C0804DA
:1018D20004084854545420043F4440203C404020D3
:1018E2007C1C2040201C3C4030403C4428102844B2
:1018F2001CA0A0A07C4464544C4400107C820000D4
:1019020000FF000000827C1000000609090620206A
:101912002020202020202020202020202020005AAB
:1019220061207A616320707269742032005A6120EA
:101932006C6576656C2031202D3E31005A61206E37
:1019420061642E202D3E32005A61206C6576656CF2
:101952002032202D3E31005A61206C6576656C2064
:1019620033202D3E3100506F6C6E6A656E6A652EB3
:101972002E2E00497A6C69762074656B6F63696EEE
:10198200652121004E4150414B41210048656C6C5C
:0A1992006F20576F726C6421000093
:00000001FF
